:1000000000000320D10100006D44000031440000D5
:10001000314400003144000031440000314400000C
:100020003144000031440000314400006D440000C0
:100030006D440000314400006D4400002144000084
:100040006D4400006D4400006D4400006D440000EC
:100050006D4400006D4400006D4400006D440000DC
:100060006D4400006D4400006D4400006D440000CC
:100070006D4400006D4400006D4400006D440000BC
:100080006D4400006D4400006D4400006D440000AC
:100090006D4400006D4400006D4400006D4400009C
:1000A000E93E00006D4400006D4400006D44000016
:1000B0006D4400006D4400006D4400003164000098
:1000C0006D440000B56B00006D4400003D71000000
:1000D0006D440000697700006D4400006D4400002D
:1000E0006D4400006D4400006D4400006D4400004C
:1000F0006D4400006D4400006D4400006D4400003C
:100100006D4400006D4400006D4400006D4400002B
:100110006D440000614B00006D4400006D44000020
:100120006D4400006D4400006D4400006D4400000B
:100130006D4400006D4400006D4400006D440000FB
:100140006D4400006D440000B97C00006D44000067
:100150006D4400006D4400006D4400006D440000DB
:100160006D4400006D4400006D4400006D440000CB
:100170006D4400006D4400006D4400006D440000BB
:100180006D4400006D4400006D4400006D440000AB
:100190006D4400006D440000198300006D440000B0
:1001A0006D4400006D4400006D4400006D4400008B
:1001B0006D4400006D4400006D4400006D4400007B
:1001C0006D4400006D4400006D4400006D4400006B
:1001D0005C4B4CF2205210B51A804DF628121A8052
:1001E00000BF00BF04F046F9574B4FF030621A6071
:1001F000564A9A60564ADA60564B4FF470021A60BB
:10020000554B564A1A60564B1A6812F4807204D144
:1002100054490A604FF4A8521A60534B1A781107D8
:1002200003D51A7842F008021A70504B504C5148CE
:10023000AA221A70504A00239918A14203D21958D1
:1002400099500433F8E74D4B4D4900228B4202D2BE
:1002500043F8042BFAE74B484B4900235A581A50ED
:100260000433B3F5E87FF9D1484B494A802103F8BC
:10027000011B9342FBD1474B424A1A60464B8A22EC
:100280001A70A3F5805324225A70A0221A709A790A
:100290009207FCD59A79D406FCD4404B9A7902F0A7
:1002A0000C02082AFAD13E4B60221A7002331A78E7
:1002B000802AFCD1394B00221A7145225A719A7951
:1002C0009006FCD59979354A4906FBD5354B364918
:1002D00019600D21596020231370937903F00C03EA
:1002E0000C2BFAD1314B324A1A60324B324A1A6027
:1002F00000225A60072243F8042C304AC3F80C2D20
:1003000062B604F0B3FA174B1B68DA0705D52C4820
:1003100004F070F92B4B2C4A1A602C4B1B785B06AF
:1003200009D5284C284A2368934204D1244804F074
:1003300061F9002323600BF079FB04F0A1F805F0CC
:10034000B5FCFEE70E20054030800440823F0400EB
:100350000100002B88ED00E0002008E0030000858C
:1003600010D0034014D0034002D0074000E0074003
:100370000413FF1FA0D800006007FF1F0813FF1F12
:100380005023FF1F0002FF1F0000000000E400E0F8
:1003900064E400E008ED00E0005006400040064044
:1003A00001E007404480044000000502048004404E
:1003B000C010050014E000E03F9002000000202083
:1003C00074CAB8581CE00340A5C3945A00F0074013
:1003D000FFFFFFFFFFFFFFFFFFFFFFFFFFFFFFFF2D
:1003E000FFFFFFFFFFFFFFFFFFFFFFFFFFFFFFFF1D
:1003F000FFFFFFFFFFFFFFFFFFFFFFFFFFFFFFFF0D
:10040000FFFFFFFFFFFFFFFFFFFFFFFFDEF9FFFF23
:1004100010B5054C237833B9044B13B10448AFF33E
:1004200000800123237010BD0813FF1F000000008F
:10043000A0D8000008B5064B1BB106480649AFF32B
:1004400000800648036813B1054B03B1984708BD07
:1004500000000000A0D800000C13FF1F0413FF1FB2
:1004600000000000F8B506460F46144652B10025BC
:1004700033681B68304617F8011B98470544013C58
:10048000F6D100E000252846F8BD00BF38B5044687
:1004900000F10805D0F89C302846984703464FF6EF
:1004A000FD7290420BD8284694F8A01094F8A12031
:1004B00001F064FD94F8A030184484F8A0000120F5
:1004C00038BD00BFF0B583B007460E461546124C46
:1004D000247814B1012C13D01CE013B10F4801F0A3
:1004E000D5FA412300930D48F9B2F2B2EBB201F014
:1004F0007DFA9DF820306BB1084801F0D5FA09E08B
:10050000074C23685B682046064916229847204618
:1005100005F0BCFB03B0F0BDC014FF1FCC14FF1FDF
:10052000DC1FFF1FA0C4000010B582B010B101286D
:1005300044D053E02A4C204602F06CF9204601F0EA
:10054000EFFA2046002102F06DF9642004F078F9FA
:100550002046012101F00EFD2046012101F058FE48
:1005600032230093204600210222802301F03EFA2C
:1005700020461C4901F0B0FD2046002101F048FE54
:10058000204605211222184B01F068FD204601216A
:1005900001F03EFE204605212122144B01F05EFDB4
:1005A0002046022101F034FE204605213022104B66
:1005B00001F054FD204601F077FA0FE00D4C23685E
:1005C0005B6820460C491B229847204605F05EFBDD
:1005D00023685B68204609491022984702B010BD85
:1005E000CC14FF1F74C6000058C5000064C500008D
:1005F00084C50000DC1FFF1F70C500008CC5000013
:1006000008B50C48022100F043FC102003F0ACFEBA
:10061000082003F0D7FE084B1878FFF785FF4FF44A
:10062000FA7004F00DF9642004F00AF9034801F0AF
:100630002DFA08BD6815FF1FC014FF1FCC14FF1F43
:1006400030B583B037483849182200F081FA37486E
:1006500002F07AFA364C204602F010FD354B23604A
:10066000354C204602F00AFD344B2360344C2046C2
:1006700002F004FD334B2360334802F0C1FF334CDA
:10068000204602F0FBFC324B2360324C204602F045
:10069000F5FC314B2360314C204602F0EFFC304B2F
:1006A0002360304C204602F0E9FC2F4B23602F4C96
:1006B000204602F0E3FC2E4B23602E4C204602F035
:1006C000DDFC2D4B23602D4C002323712C4A22602E
:1006D0002C4AC4F89C2084F8A03084F8A13004F19E
:1006E0000805284601F076FE274B23602846274957
:1006F000274A284B01F024FA202300932123019359
:1007000028460D210B22222301F060F904230093D7
:10071000019321482149224A224B02F0D9F803B023
:1007200030BD00BF6815FF1F8C1FFF1F2813FF1F60
:10073000E019FF1F48D000008014FF1F60D00000A8
:100740006814FF1F78D000009814FF1FC819FF1FFE
:10075000C0D00000B019FF1FD8D000003814FF1F10
:10076000F0D000005014FF1F08D100004813FF1FF5
:1007700020D10000F819FF1F38D10000C414FF1F5A
:1007800088C40000BD23000098C4000094CF00007E
:10079000C5190000B51800006013FF1F3C08FF1FBB
:1007A0005008FF1F4C08FF1F2DE9F0432DED048B6F
:1007B00095B0B0EE408AF0EE608A9D4801F066F98F
:1007C00000240025CDE90245CDE90445CDE90645E3
:1007D000CDE90845CDE90A45CDE90C45CDE90E4501
:1007E000CDE91045CDE91245924E3046B0EE480AAB
:1007F000F0EE680A02F04CFC9FED8B9B3046B0EEA9
:10080000490AF0EE690A02F047FC8B4E3046B0EE22
:10081000480AF0EE680A02F03BFC3046B0EE490AA6
:10082000F0EE690A02F038FC844E3046B0EE480A19
:10083000F0EE680A02F02CFC3046B0EE490AF0EE09
:10084000690A02F029FC7E4E3046B0EE480AF0EE0E
:10085000680A02F01DFC3046B0EE490AF0EE690A63
:1008600002F01AFC774E3046B0EE480AF0EE680A05
:1008700002F00EFC3046B0EE490AF0EE690A02F0D2
:100880000BFC714E3046B0EE480AF0EE680A02F0FA
:10089000FFFB3046B0EE490AF0EE690A02F0FCFBBD
:1008A0006A4E3046B0EE480AF0EE680A02F0F0FBFD
:1008B0003046B0EE490AF0EE690A02F0EDFB644EF4
:1008C0003046B0EE480AF0EE680A02F0E1FB30462E
:1008D000B0EE490AF0EE690A02F0DEFB5D4E3046EA
:1008E000B0EE480AF0EE680A02F0D2FB3046B0EEF5
:1008F000490AF0EE690A02F0CFFB574E3046B0EEDF
:10090000480AF0EE680A02F0C3FB3046B0EE490A2E
:10091000F0EE690A02F0C0FB51EC180B22462B46A0
:100920000BF042F8002875D045EC184B4148B0EE6A
:10093000480AF0EE680A02F083FF8DED020B3E4894
:10094000B0EE480AF0EE680A02F096FF8DED040B57
:100950003A48B0EE480AF0EE680A03F027F88DED49
:10096000060B3748B0EE480AF0EE680A03F0D2F8FA
:100970008DED080B3348B0EE480AF0EE680A02F03D
:100980004FFE8DED0A0B3048B0EE480AF0EE680AD3
:1009900002F0DCFA8DED0C0B2C48B0EE480AF0EEBC
:1009A000680A03F071F98DED0E0B2948B0EE480A84
:1009B000F0EE680A02F0E0F88DED100B2548B0EE7D
:1009C000480AF0EE680A02F0EDF98DED120B3046A0
:1009D000B0EE480AF0EE680A02F062FB0DF1080979
:1009E000002600241D4DB046771C20462946F9E814
:1009F00002230AF09FFB0AF0EBFF014606FB07F219
:100A0000CDF800803046C2EBC2024346FFF75AFDE4
:100A10003E46E9E7062003F013FF15B0BDEC048B5A
:100A2000BDE8F083AFF300800000000000004F40FD
:100A3000CC14FF1FB019FF1F3814FF1F5014FF1FE5
:100A40004813FF1FC819FF1F6814FF1FF819FF1F65
:100A5000E019FF1F8014FF1F9814FF1F00004E4075
:100A600008B59FED030BFFF79FFE08BDAFF30080B5
:100A70000000000000005E40704700BF2DE9F0411B
:100A800004460D46064646F8041B4FF400783046EF
:100A9000002142460BF0CAFA04F5017738460021DE
:100AA00042460BF0C3FAC4F80464C4F80874002387
:100AB000A4F80C34C4F8103484F8143484F81534D1
:100AC00084F8163484F81734C4F8183484F81C34C5
:100AD00084F81D34C4F82034C4F82434C4F828340D
:100AE000C4F82C34C4F83034C4F83434C4F838347E
:100AF000C4F83C34C4F840340F4B9D4202D10F4B34
:100B00001C6016E00E4B9D4202D10C4B5C6010E065
:100B10000C4B9D4202D1094B9C600AE00A4B9D425E
:100B200002D1064BDC6004E0084B9D4204BF034B3E
:100B30001C612046BDE8F0818C1FFF1F101AFF1FAB
:100B40009C1FFF1FAC1FFF1FBC1FFF1FCC1FFF1FE1
:100B500038B504461546FFF791FF2846012103F0FA
:100B60008BFD044B53F83530C4F8183400221A704A
:100B7000204638BD68D1000010B5044690F81734FF
:100B8000012B0ED1022380F8173400680368DB695B
:100B900019490422984720680368DB6C00219847B4
:100BA00010BD022B27D1B0F80C349BB2B3F5007FF7
:100BB00011D1012380F8173400680368DB690F49FD
:100BC0000622984720680368DB6C002198470023C1
:100BD000A4F80C3410BD0068B4F80C2492B2D4F818
:100BE0000434995C03681B689847B4F80C340133EB
:100BF0009BB2A4F80C3410BD90D00300A086010075
:100C000008B5094BDB7813F0400F04D0064B1B7975
:100C100013F0400F02D106F0A7FD08BD034BD868C2
:100C2000FFF7AAFFF7E700BF00D00640101AFF1F2A
:100C300008B5094BDB7813F0400F04D0064B1B7945
:100C400013F0400F02D107F037F808BD034B1869C5
:100C5000FFF792FFF7E700BF00A00E40101AFF1F3A
:100C600010B50446D0F818340BB101221A700023D5
:100C7000A4F80C3423681B4A934204D11F201A495C
:100C800003F066FC1EE0194A934204D12120184962
:100C900003F05EFC16E0174A934204D12320164964
:100CA00003F056FC0EE0154A934204D12520144966
:100CB00003F04EFC06E0134A934203D1422012494E
:100CC00003F046FC012384F8173420680368DB69CD
:100CD0000E490622984720680368DB6C002198477C
:100CE00010BD00BF8C1FFF1FB91700009C1FFF1F06
:100CF0000D180000AC1FFF1F61180000BC1FFF1F74
:100D0000010C0000CC1FFF1F310C0000A086010069
:100D100010B50446006803681B6A98472368144AA4
:100D2000934204D11F20134903F012FC10BD124A54
:100D3000934204D12120114903F00AFC10BD104A4E
:100D4000934204D123200F4903F002FC10BD0E4A48
:100D5000934204D125200D4903F0FAFB10BD0C4A43
:100D6000934203D142200B4903F0F2FB10BD00BFB8
:100D70008C1FFF1F316400009C1FFF1FB56B00001C
:100D8000AC1FFF1F3D710000BC1FFF1F69770000F3
:100D9000CC1FFF1FB97C000010B50446D0F81834F2
:100DA0000BB100221A70206803689B690F499847AD
:100DB00023680F4A934204D11F200E4903F0C8FB59
:100DC0000EE00D4A934204D121200C4903F0C0FBF0
:100DD00006E00B4A934203D123200A4903F0B8FBF3
:100DE0000023A4F80C3484F8173410BD90D003000D
:100DF0008C1FFF1FB91700009C1FFF1F0D1800005C
:100E0000AC1FFF1F6118000010B50446006803689E
:100E10001B6A98472368144A934204D11F20134940
:100E200003F096FB10BD124A934204D121201149D0
:100E300003F08EFB10BD104A934204D123200F49CA
:100E400003F086FB10BD0E4A934204D125200D49C4
:100E500003F07EFB10BD0C4A934203D142200B49A4
:100E600003F076FB10BD00BF8C1FFF1F3164000034
:100E70009C1FFF1FB56B0000AC1FFF1F3D710000E2
:100E8000BC1FFF1F69770000CC1FFF1FB97C00004B
:100E900038B504460D4690F81634012B02D0022BCB
:100EA00003D004E0FFF7B0FF01E0FFF731FF84F863
:100EB0001654012D02D0022D04D007E02046FFF782
:100EC0006BFF38BD2046FFF7CBFE38BDD4F8183491
:100ED0000BB100221A7038BDF8B50446154690F8DB
:100EE0001C34002B72D15378242B6FD1137E0C2B22
:100EF0006CD102F11900364906220BF063F8002884
:100F000064DC334805F11F0106220BF05BF8002872
:100F10005CDCD4F804540023FE22EA540133072B8E
:100F2000FBD1AA23EB712A4F791E2B46053740F2DD
:100F3000FA5011F8012F62F055061E7242F0550664
:100F40005E72104480B20233B942F2D1030A63F0F8
:100F500055022A7543F055036B75C0B260F0550316
:100F6000AB7540F05500E8752046FFF74DFFD4F80B
:100F700018340BB101221A700025A4F80C54206813
:100F80000368DB694BF2BC110622984720680368AE
:100F9000DB6C29469847206803685B69984720689E
:100FA0000368DB690B49042298472068D4F80434AD
:100FB000595D03681B689847206803685B69984718
:100FC0000135182DF1D12046FFF7E6FEF8BD00BF30
:100FD00064C6000090D00300F8B504460F461546DD
:100FE000D0F8046403F008FCC01BAF2808D8C0F197
:100FF000B000C0EBC000C00002D001387FF4FDAFEC
:101000004FF6FF739D4202D10023F37305E00223E4
:10101000F37333762B0A7376B576317E183171709F
:10102000334653F8082FC6F802209A88F280354AD2
:101030001068B06092889A80337D0133337511F067
:10104000FF010BD0D4F804040023CC27C25C174462
:10105000BFB201339AB28A42F8D300E0CC272046CF
:10106000FFF7D2FED4F818340BB101221A70002514
:10107000A4F80C5420680368DB694BF2BC1106220B
:10108000984720680368DB6C294698472068036806
:101090005B69984720680368DB691B49042298470D
:1010A00020680368DB6CCC219847206803685B6983
:1010B000984773787BB12068D4F80434595D03688D
:1010C0001B689847206803685B6998470135ADB293
:1010D0007378AB42EFD820680368DB6C391298470D
:1010E000206803685B69984720680368DB6CF9B285
:1010F0009847206803685B6998472046FFF74CFED5
:10110000F8BD00BF64C6000090D0030008B5137E90
:101110004BB980F81C3453769376022313764FF63E
:10112000FF72FFF759FF08BD08B5137E5BB90123B5
:1011300080F81C34002353769376022313764FF6FF
:10114000FF72FFF749FF08BD08B5137E012B03D0DE
:101150000122FFF741FF08BD537E012B03D9062270
:10116000FFF73AFF08BD003318BF012380F81D3494
:10117000012380F81534002313764FF6FF72FFF732
:101180002BFF08BD70B504460E461546127E202A78
:1011900003D90122FFF720FF70BD00F2244005F1C2
:1011A000190102F039FF2A7E2244002382F82434F8
:1011B0002B76012384F81534204631464FF6FF7212
:1011C000FFF70AFF70BD00BF10B5137E022B03D0DE
:1011D0000122FFF701FF10BD547E937E43EA0423F2
:1011E0005C1EA4B2B4F5007F03D30622FFF7F4FE21
:1011F00010BDD0F820441CB90222FFF7EDFE10BD4F
:10120000638200231376012380F815344FF6FF72B2
:10121000FFF7E2FE10BD00BF08B5137E1BB101222F
:10122000FFF7DAFE08BD538A1BB10922FFF7D4FE8F
:1012300008BD90F81D345376012313764FF6FF72E4
:10124000FFF7CAFE08BD00BF38B5137E1BB10122EF
:10125000FFF7C2FE38BD538A1BB10922FFF7BCFE5F
:1012600038BD01245476002393760525557709254A
:1012700095771025C2F8215082F8274082F828403F
:10128000A2F82B3082F82D30D0F8203433B9A2F8F0
:101290001B30A2F82930A2F8253013E01B891C125C
:1012A000D4761377D0F820345B8A1C1282F8294058
:1012B00082F82A30D0F820341B8A1C1282F825408C
:1012C00082F82630182313764FF6FF72FFF784FE5C
:1012D00038BD00BF70B505460E461446137E1BB1DF
:1012E0000122FFF779FE70BD538A1BB10922FFF777
:1012F00073FE70BDD0F820342BB913764FF6FF7211
:10130000FFF76AFE70BD58680AF0F0FE02462076CC
:10131000D5F8203404F119005968D2B202F07CFEED
:10132000284631464FF6FF72FFF756FE70BD00BFEC
:1013300070B505460E461446137E1BB10122FFF719
:101340004BFE70BD538A1BB10922FFF745FE70BDED
:10135000D0F820342BB913764FF6FF72FFF73CFE1E
:1013600070BDD8680AF0C2FE02462076D5F8203457
:1013700004F11900D968D2B202F04EFE2846314677
:101380004FF6FF72FFF728FE70BD00BFF8B50546A7
:101390000E461446137E1BB10122FFF71DFEF8BD59
:1013A000538A1BB10922FFF717FEF8BD00F224474C
:1013B00038460AF09BFE0246207604F119003946B1
:1013C000D2B202F029FE284631464FF6FF72FFF7EF
:1013D00003FEF8BD70B505460E461446137E1BB1DC
:1013E0000122FFF7F9FD70BD538A1BB10922FFF7F7
:1013F000F3FD70BDD0F820342BB913764FF6FF7291
:10140000FFF7EAFD70BD18680AF070FE024620760C
:10141000D5F8203404F119001968D2B202F0FCFDAD
:10142000284631464FF6FF72FFF7D6FD70BD00BF6C
:1014300010B5137E1BB10122FFF7CEFD10BD538AFC
:101440001BB10922FFF7C8FD10BDD0F8203413B935
:101450005376937603E05B8A1C12547693760223CC
:1014600013764FF6FF72FFF7B7FD10BD70B5137E10
:101470001BB10122FFF7B0FD70BD538A1BB10922D9
:10148000FFF7AAFD70BDD0F8203413B906231376F8
:1014900017E09B8A03335B001376D0F82054AB8AA5
:1014A0007BB114460023AD6935F813502E12E67750
:1014B00084F820500133D0F820540234AE8A9E4282
:1014C000F1DC0023537681249476D376802414773C
:1014D0005377822393774FF6FF72FFF77DFD70BD40
:1014E0002DE9F041054603F087F98046D5F804441C
:1014F000A61C30466A4906220AF064FDD0F10107B5
:1015000038BF00276FB93046664906220AF05AFDF7
:1015100038B13046644906220AF054FD002840F0F4
:10152000BC80E38A1A0A42EA03239BB2227D202A66
:101530005AD0302A2AD0102A40F0AA80022B14D088
:10154000032B08D0012B1AD1284641462246FFF72B
:10155000C3FCBDE8F081002F00F09F802846414683
:101560002246FFF7D3FDBDE8F081002F00F0958003
:10157000284641462246FFF7D7FDBDE8F0812846C0
:1015800041460022FFF728FDBDE8F081822B0FD0F5
:1015900002D8502B1AD020E0F02B10D0B3F5805F8A
:1015A0001BD1284641462246FFF7CEFDBDE8F0811B
:1015B000284641462246FFF7E5FDBDE8F081284672
:1015C00041462246FFF700FEBDE8F081284641462D
:1015D0000522FFF701FDBDE8F081284641460022C3
:1015E000FFF7FAFCBDE8F081812B20D006D8602BF4
:1015F00016D0802B22D0502B43D13BE0C02B2BD0D8
:1016000002D8822B21D03CE0F02B2CD0B3F5805FA8
:1016100037D1284641462246FFF7FEFDBDE8F0815E
:10162000284641462246FFF70FFEBDE8F0812846D6
:1016300041462246FFF74EFEBDE8F081284641466E
:101640002246FFF775FEBDE8F08128464146224656
:10165000FFF79CFEBDE8F081284641462246FFF791
:10166000B9FEBDE8F081284641462246FFF7E0FE7C
:10167000BDE8F081284641462246FFF7F7FEBDE867
:10168000F081284641460022FFF7A6FCBDE8F08124
:10169000284641460022FFF79FFCBDE8F08100BFCD
:1016A00064C600006CC600005CC600002DE9F0476F
:1016B000044672B6006803689B6898470546002692
:1016C00004274FF0030840E094F81734032B15D09B
:1016D000052B13D0012B33D120680368DB689847B2
:1016E00010B1CC2803D006E084F817842CE0052341
:1016F00084F8173428E084F8176425E0B4F80C3433
:1017000001339BB2A4F80C34B4F80C941FFA89F995
:10171000D4F804A420680368DB689847C0B20AF8CC
:101720000900B4F80C349BB2B3F5007F0CD394F8E5
:101730001734032B14BF33463B4684F8173403E0B9
:1017400020680368DB689847013D002DBCD162B674
:10175000BDE8F08710B50446FFF7A8FF94F81734EA
:10176000DA1ED2B2012A17D8D4F810340133C4F8E3
:101770001034231DD4F804249A4207BF04F50172E3
:10178000C4F80424C4F8043404F50173C4F808341C
:10179000012384F8143407E0052B05D1002384F8D5
:1017A00017342046FFF79CFE0023A4F80C340123D5
:1017B00084F8173410BD00BF08B5124B186890F8B4
:1017C0001634012B0DD1104B1B7913F0020F18D0DA
:1017D0000D4BDB7904F02CFE0A4B1868FFF7BAFFBB
:1017E00008BD094BDB7813F0400F04D0064B1B7982
:1017F00013F0400F02D104F01BFE08BDFFF7BCF947
:10180000F9E708BD101AFF1F00A0064008B5124BEB
:10181000586890F81634012B0DD1104B1B7913F03A
:10182000020F18D00D4BDB7905F0C4F90A4B58684C
:10183000FFF790FF08BD094BDB7813F0400F04D091
:10184000064B1B7913F0400F02D105F0B3F908BD28
:10185000FFF792F9F9E708BD101AFF1F00B0064024
:1018600008B5124B986890F81634012B0DD1104B27
:101870001B7913F0020F18D00D4BDB7905F05EFCDD
:101880000A4B9868FFF766FF08BD094BDB7813F039
:10189000400F04D0064B1B7913F0400F02D105F026
:1018A0004DFC08BDFFF768F9F9E708BD101AFF1FE6
:1018B00000C00640F8B50546A1F12803252B5DD8E8
:1018C000DFE803F01331757526365C5C5C5C5C5CAC
:1018D0005C5C5C5C5C5C5C5C5C5C5C5C5C5C5C5C48
:1018E0005C5C5C5C5C5C5C5C424200240227012620
:1018F0002B1993F82900FF2806D0E3B20F2B94BFD1
:101900003146394602F0B8FE0134162CF0D150E0D1
:10191000002A14BF38220022002A4CD0013A7FF45A
:10192000FDAF0120F8BD104602F08AFF0120F8BD8E
:10193000032A34BF05230223C3EBC303DB00013BAF
:101940007FF4FDAF0120F8BD72B901F03F010D44F5
:1019500095F82900012102F08FFE95F82900002159
:1019600002F058FE0120F8BD01F03F010D4495F84A
:101970002900022102F080FE0120F8BD3F291CD978
:1019800001F03F016B1893F82900FF2817D00F29A9
:1019900004DC114602F03EFE0120F8BD02F05EFEBE
:1019A000003018BF012085F824000120F8BD012077
:1019B000F8BD0120F8BD0120F8BD0020F8BD0120D0
:1019C000F8BD00BF08B500F025FD08BD80F829105E
:1019D00080F82A2080F832309DF8003080F83330CB
:1019E0009DF8043080F83430704700BF2DE9F04393
:1019F00083B080460E4614461F469DF82850CB18EB
:101A000002EB050E5FFA8EFECDF800E0DBB200F0CF
:101A10001BFC78B14FF00009CDF8009040463146EC
:101A200022463B4600F0E6FB0134E4B26A1E12F0A7
:101A3000FF05F1D103B0BDE8F08300BF2DE9F0430D
:101A400083B0064690F84C8090F84D40036893F8B8
:101A5000119000252F4633681B7CA9B2B26CD800C8
:101A600001FB00F189B20A44009230463946224611
:101A700000F0B4FE0134E4B26B1CDBB2984502D92D
:101A80000135A145E7D803B0BDE8F08308B5036888
:101A90001B7C90F84C2002FB03F2806C0021D200EA
:101AA0000AF0C4FA08BD00BF10B50446FFF7C6FF30
:101AB000204600F0BFFE10BD08B580F84D10436C05
:101AC0001B68984708BD00BF10B5044690F89130D8
:101AD0000BB1FFF7DBFF20460021FFF7EDFF10BD44
:101AE00038B50446FFF7AAFF94F84D5094F84C30EF
:101AF0001D44EDB223685B7CAB4204D8204600F065
:101B000099FE002038BD94F8913013B12046FFF7BC
:101B1000BDFF20462946FFF7CFFF012038BD00BF9B
:101B200010B50446FFF7D0FF2046FFF7D9FF002885
:101B3000FAD110BD0823037000487047241AFF1F14
:101B400070B584B004460D461646009309490A4A0A
:101B5000334600F09BFE0DF10F00FFF7EBFF01464F
:101B60009DF80F2000952046044B00F011FC04B0B6
:101B700070BD00BF31270000ED250000B922000034
:101B80004318405C5B7803EB002080B2704700BFD5
:101B9000012B06D013B1022B06D008E01044C0B2CE
:101BA00070470844C0B27047801AC0B27047401AEC
:101BB000C0B27047012B06D013B1022B06D008E04B
:101BC0000844C0B27047801AC0B27047401AC0B211
:101BD00070471044C0B270470020704738B50446C3
:101BE0000D460B7803704B7843708B788370CB78FD
:101BF000C3700B7903714B7943718B798371CB7906
:101C0000C3710B7A03724B7A43728B7A8372CB7AED
:101C1000C3720B7B03734B7B43738B7B8373CB7BD5
:101C2000C3730B7C037408461121FFF7A9FF608280
:101C300028461321FFF7A4FFA08228461521FFF7AD
:101C40009FFFE08238BD00BF70B4827A04682578B7
:101C500015418B18DBB2072B01D8EAB20BE0661CEA
:101C600006606478C2F10802D2B204FA02F22A4392
:101C7000D2B2083BDBB28372012303FA01F1481EA2
:101C8000104070BC704700BF38B5044600F16405D1
:101C90004166002380F86E30284694F87810FFF7EC
:101CA000D3FF84F86C00284694F87910FFF7CCFF36
:101CB00084F86D0094F8903084F87030D3F101030B
:101CC00038BF002384F8713038BD00BF10B50C4612
:101CD000FFF7BAFF013CE4B2012303FA04F4001B4E
:101CE00040B210BD2DE9F04F89B004468B460792F3
:101CF00090F86A9090F86BA094F86C50C9EB0505C9
:101D0000EDB25D4534BF2B465B46069394F86930CF
:101D100004935FFA8AF3039394F872604FFA89F898
:101D20005FB294F8680041463A463346FFF742FFF7
:101D30000590049841463A463346FFF729FF02468C
:101D4000079B53B194F8703084F890300096204689
:101D50000599069B00F04EFA0CE094F86F304BB9F1
:101D600094F8713084F89030009620460599069BCF
:101D700000F040FAAB450AD3C5EB0B0B5FFA8BFBC7
:101D80000AF101035FFA83FA4FF00009B4E709EBA7
:101D90000B0584F86A50039B84F86B3009B0BDE8EA
:101DA000F08F00BF2DE9F04F85B0044600F16405C7
:101DB000FFF76AFF94F86DB0284694F87A10FFF7A1
:101DC00085FF8046284694F87B10FFF77FFF064684
:101DD000284694F87C10FFF779FF039094F86C90F4
:101DE0004FFA89F3002B40F383805FFA8BF1029165
:101DF0000E44C6F1000A94F872604FFA8AFA94F819
:101E00006800414652463346FFF7D4FE074684F841
:101E1000680094F86900414652463346FFF7B8FE21
:101E2000024684F86900032E2DD8DFE806F0020987
:101E3000142207EB0903DBB202990144C9B224E082
:101E40000299C1F1010038447B1CDBB202EB0901AD
:101E5000C9B2C7B219E0C9F1010038447B1CDBB23A
:101E60000299C1F1010616440132D1B2F2B2C7B2F1
:101E70000BE0029B3B44DBB2C9F10100104401328C
:101E8000D1B2C2B201E001463B460091204639463C
:101E900000F0DAF960B3002384F86A3084F86B301C
:101EA000994601264FFA8BFA284694F87610FFF7E8
:101EB000CBFE8046284694F87710FFF7C5FE07460C
:101EC000204641464A46FFF70DFF20463946324636
:101ED000FFF708FF28463146FFF7B6FE0028EFD18E
:101EE00094F96B305345DFDB94F8703084F8903010
:101EF000039805B0BDE8F08FC26D1732FF291AD8DC
:101F0000602903D9B0F888301A4404E0402984BF1E
:101F1000B0F88630D21853782BB31078884205D1A8
:101F200002E01078884201D1901C70471A4453781F
:101F3000002BF6D119E0B0F88A001318105C5A781B
:101F400052EA002213D08A4204D101E08A4201D130
:101F5000D81C70479A78134418785A7852EA0022AD
:101F6000F4D1002070470020704700207047002007
:101F7000704700BF80F86F10704700BF2DE9F04137
:101F800004460F461646984690F87250032D16D810
:101F9000DFE805F002070C11036E98473044C6B223
:101FA0000DE0036E9847381AC7B208E0036E9847F1
:101FB000301AC6B203E0036E98473844C7B284F8BB
:101FC000687084F8696020464146FFF795FF014636
:101FD00028B12046FFF7E6FEC0B2BDE8F081002040
:101FE000BDE8F0812DE9F04704468A4691461D463A
:101FF00000F0F0F9013D00264FF6FF774FF6FE782E
:102000006368204615F8011F98470346B84222D05E
:102010004045F5D0204651464A46FFF7AFFF94F8B9
:102020007230032B14D8DFE803F002060A0F824453
:102030005FFA8AFA0CE081445FFA89F908E0C0EBA4
:102040000A0A5FFA8AFA03E0C0EB09095FFA89F924
:102050000644F6B2D4E73046BDE8F08710B5024C2E
:102060004460FFF7BFFF10BDBD23000030B4C36D57
:1020700083B390F8811080F88D1090F8822080F85A
:102080008E2090F88C302BB3012B10D190F8833038
:1020900049B25CB2A142B8BF80F88D3090F884306C
:1020A00052B259B28A4215DD80F88E3012E090F8B3
:1020B0007E4090F8803049B25DB245FA84F5A9427D
:1020C000BCBFE41880F88D4052B259B28A42C8BFF2
:1020D00080F88E3030BC704710B50446C36D8B421B
:1020E00008D0C1657430FFF779FD2046FFF7BEFFC9
:1020F000014B236610BD00BFD91B000070B582B034
:102100009DF81840012B12D190F84D5090F84E30A8
:102110008B426DD9A2EBC50202F0FF0290F84F305E
:10212000934265D90094046C0123A04760E0022C1F
:102130000FD10131C91A01F0FF0190F84D40A2EB17
:10214000C40202F0FF0290F84F5090F84E60002455
:102150001EE0032C0FD190F84D40C4EB4414E40072
:10216000013452FA84F2D21AD2B290F84F5090F859
:102170004E60012423E090F84D50A2EBC50202F01E
:10218000FF0290F84F5090F84E6014F0010416D101
:1021900095422DD90B44DBB28B4205D2B14202D21B
:1021A000731EDBB202E00021B14221D203B3B3427D
:1021B00094BFC1EB0303C1EB0603DBB215E0B142F0
:1021C00016D21344DBB2934205D2954202D96B1E5C
:1021D000DBB202E00022AA420AD24BB1AB4294BF6A
:1021E000C2EB0303C2EB0503DBB20094046CA0470F
:1021F00002B070BD30B583B01C4633B1436C9DF85E
:10220000185000955D682346A84703B030BD00BF55
:10221000022992BF80F89010012380F89030704717
:102220008A4206D283420BD89A4294BF00200120F2
:102230007047834206D99A4294BF0020012070471C
:102240000120704700207047F8B504460F461E462F
:1022500090F8570094F858109DF81830FFF7E0FFF9
:10226000054640B194F8550094F856103A46334666
:10227000FFF7D6FF05462846F8BD00BF30B402F090
:102280000703012404FA03F3DBB202F0F802846CC2
:1022900005682D7C05FB024290F89040012C06D881
:1022A000545C1C43545490F89000012802D0505CB8
:1022B0004340535430BC7047F8B507460E461546A8
:1022C0001C469DF818305BB9384631462A46FFF760
:1022D000D5FF0136F6B2013C14F0FF04F4D1F8BD8D
:1022E000384631462A46FFF7C9FF0135EDB2013CB9
:1022F00014F0FF04F4D1F8BD70B490F84C20D30072
:1023000080F84F300368197C1F2928BF1F21C9009E
:1023100080F84E1090F84D40E100C9B280F850109E
:102320005D7C1619AE42C4BFC4EB0502D2B280F880
:10233000511001EBC20280F85220F02280F85320A5
:102340009A8AF02A98BF80F85320DB8A80F85430AC
:1023500070BC704710B50446FFF7CEFF002384F829
:10236000553094F84E3084F8563094F8513084F853
:10237000573094F8523084F8583010BD10B582B000
:102380009DF810400094FFF7B9FE02B010BD00BFE9
:1023900070B50446049E0025C5650364816480F819
:1023A0004C2080F84D50012380F8903080F8913017
:1023B00046643368984784F8725070BD084629B166
:1023C0004FF6FF730A2908BF184670474FF6FF7093
:1023D000704700BF002380F82330704710B50A46CD
:1023E000046920210023A04710BD00BF38B50D4669
:1023F0001346046917212A46A04738BD00B583B0AB
:1024000002AA02F8011D0121FFF7F0FF03B05DF8F9
:1024100004FB00BF2DE9F04F83B004469B460368E0
:1024200093F80C8014390C2975D8DFE801F0437457
:102430007437586674747474747452001BF8015BBA
:10244000082641274FF0000A15F0800F2046394634
:1024500014BF0122524600F0F5F96D00EDB220469E
:1024600040214A4600F0EEF9236820462C219A7953
:1024700000F0E8F920464021424600F0E3F92368E5
:1024800020462C21DA7900F0DDF9013E16F0FF0636
:10249000DAD1019B9B45D1D101203FE0002A3CD0FD
:1024A00008F00108531EDBB201335B44019388F04E
:1024B0000109C3E7204649215A7800F0C3F923688F
:1024C0001A7B2046402102F0010200F0BBF90120F6
:1024D00024E020464A2100F0B5F901201EE0204604
:1024E00049211A7800F0AEF92368656920462C214D
:1024F0009A780023A847012010E0656920462C2126
:10250000DA780023A8472368204649215A7800F04A
:1025100099F9012002E0002000E0012003B0BDE8AD
:10252000F08F00BF10B50A46C46815210023A047EC
:1025300010BD00BF10B50A46C46816210023A0478D
:1025400010BD00BF38B50D461346C46817212A4692
:10255000A04738BD10B5C468182100221346A04713
:1025600010BD00BF10B5C468192100221346A04752
:1025700010BD00BF2DE9F04182B005460C464FF07A
:10258000010800272178172911D002D8152905D272
:1025900028E0192916D9FE291BD023E062788DF88E
:1025A0000720EE6828463B46B0470234EAE76378E6
:1025B0008DF80730284641460DF10702FFF7C2FFAC
:1025C0000234DFE70134EE6828463A463B46B0471E
:1025D000D8E762788DF807202846292100F032F9E3
:1025E0000234CFE702B0BDE8F08100BF2DE9F04131
:1025F00005460E4617469846A1F11404052C23D82B
:10260000DFE804F01A030D171A1A0021FFF7E6FE9F
:1026100028463946FFF7F2FE0120BDE8F08100218F
:10262000FFF7DCFE28463946FFF7E8FE0120BDE84B
:10263000F0810121FFF7D2FE2C69284631463A4647
:102640004346A047BDE8F0810020BDE8F08100BF0F
:10265000F8B5044615461E460B3904295DD8DFE857
:1026600001F0035C0E1F2E0022B92D49FFF782FFF7
:102670000120F8BD2B49FFF77DFF0120F8BD3AB9D5
:102680002949FFF777FF23689B7CA3770120F8BDDA
:102690002649FFF76FFF2368DB7CA3770120F8BD95
:1026A000FFF758FF20468121FFF73CFF20462946CF
:1026B000FFF740FF2046FFF755FF0120F8BDFFF769
:1026C00049FF7779A37F03EBC70707F0FF07204691
:1026D0004021FFF727FF3909204641F01001FFF79D
:1026E00021FF204607F00F01FFF724FFB1792046B4
:1026F00041F0B001FFF71EFF3179C900204601F01B
:10270000F8013268FFF71EFF6A1E12F0FF05F3D1D1
:102710002046FFF727FF0120F8BD0020F8BD00BFCD
:102720009CCF0000A4CF0000C4CF000004D0000064
:1027300038B505460C46FFF78BFF034690B9092CC8
:102740000AD00A2C0FD1284600F018F8284607496D
:10275000FFF710FF012306E02846054900F00AF8BC
:10276000012300E00123184638BD00BFCCCF000094
:10277000ACCF000001608B7C8377704738B504468E
:102780004569282100221346A847E5682046142100
:1027900000221346A84720464B21012200F052F8A0
:1027A0002368204629211A7900F04CF820464B2155
:1027B000002200F047F82368204629211A7900F00A
:1027C00041F820464B21012200F03CF823682046C6
:1027D00029215A7900F036F838BD00BF10B582B013
:1027E0008DF805108DF806208DF8043002AB049AA0
:1027F00043F8082D84680F2101226B46A04702B0E0
:1028000010BD00BF10B58468092100221346A047FF
:1028100010BD00BF10B584680A2100221346A047EE
:1028200010BD00BF10B50A4684680B210023A047E5
:1028300010BD00BF10B58468102100221346A047C8
:1028400010BD00BF10B544690023A04710BD00BFF4
:1028500000207047002303600B4A8260C26002615F
:102860004261C37780F8223080F82330FF2280F85D
:10287000202080F825201146C21882F82910013343
:10288000162BF9D1704700BF51280000F8B5044657
:102890000F4616461D46FFF7DDFFA760E66025617F
:1028A000069B63612046FFF7ADFFF8BD08B50846FB
:1028B000114601F0E1FE08BD08B50846114601F0D9
:1028C000A9FE08BD08B5084601F0C8FE08BD00BF56
:1028D0002DE9F84305460F4691469846043000F02E
:1028E0002BF82C46134B44F8383B05F1B006204634
:1028F00000F022F80C34B442F9D1C5F8BC90C5F808
:10290000C0809DF8203085F8C4309DF8243085F8CB
:10291000C530C5F8B8700A23C5F8C8304FF4FA734B
:10292000C5F8CC300023C5F8D030C5F8B4302846FF
:10293000BDE8F88318D000000022027002724272D3
:10294000704700BF2DE9F843804651EC100BD8E9E1
:10295000042308F0CDFE06460F46D8E90645D8E91F
:10296000022308F09BFD32463B4608F097FD804667
:1029700089462046294600220A4B08F0DDFB3246F4
:102980003B4608F08BFD22462B4608F0D3FB02465F
:102990000B464046494608F081FD41EC100BBDE86E
:1029A000F88300BF0000F03F2DE9F047824651EC6C
:1029B000100BDAE9042308F09BFE0022174B08F005
:1029C000B9FB06460F46DAE9064502460B4608F013
:1029D00065FD804689462046294600220F4B08F0B7
:1029E000ABFB32463B4608F059FD02460B462046FB
:1029F000294608F0A1FB02460B464046494608F02E
:102A00004DFD0022054B08F097FBDAE9022308F0A0
:102A100045FD41EC100BBDE8F08700BF0000F03F22
:102A20002DE9F84F804655EC104BD0E9060144A340
:102A3000D3E9002308F032FD06460F46D8E9040129
:102A400000223D4B08F02AFD02460B46204629464F
:102A500008F04EFE04460D460022384B08F090FF69
:102A600000282DD0D8E902010022334B08F016FDD2
:102A7000804689462046294622462B4608F00EFD10
:102A800082468B463046394600222C4B08F054FBD8
:102A900022462B4608F002FD32463B4608F04AFB30
:102AA00002460B465046594608F0F8FC02460B46D3
:102AB0004046494608F0F2FC41EC100BBDE8F88FA7
:102AC0002046294600224FF0804308F033FB04469D
:102AD0000D46D8E902010022174B08F0DFFC8046C2
:102AE00089462046294622462B4608F0D7FC8246D6
:102AF0008B46304639460022104B08F01DFB22461B
:102B00002B4608F0CBFC32463B4608F015FB02464C
:102B10000B465046594608F0C1FC00224FF0804356
:102B200008F00AFB02460B464046494608F0B6FC50
:102B300041EC100BBDE8F88F0000E03F0000F03FD3
:102B4000000000606666F83F10B5044600F096FA93
:102B5000074B236004A3D3E90023C4E906232046DE
:102B600010BD00BFAFF3008000000000AC39FB3F98
:102B700030D00000AFF30080F8B50646D0E902453A
:102B80000768D0E9040153EC102B08F0D3FA41ECAC
:102B9000100B7B68304698472046294653EC102B93
:102BA00008F0C8FA41EC100BF8BD00BFFFFFFFFFB3
:102BB00070B5064651EC100BD6E9042308F098FDD9
:102BC00004460D464CA3D3E9002308F0D9FE80B19A
:102BD000204629460022444B08F060FC22462B4642
:102BE00008F05CFCD6E9022308F058FC41EC100B1D
:102BF00070BD2046294632A3D3E9002308F0C0FE69
:102C0000D8B12046294630A3D3E9002308F092FA30
:102C100004460D460022344B08F040FC22462B4669
:102C200008F03CFC0022314B08F086FAD6E902237A
:102C300008F034FC41EC100B70BD2046294624A35B
:102C4000D3E9002308F09CFED8B12046294622A3F0
:102C5000D3E9002308F06EFA04460D460022224B09
:102C600008F01CFC22462B4608F018FC0022204BE2
:102C700008F062FAD6E9022308F010FC41EC100BD0
:102C800070BD2046294616A3D3E9002308F052FA66
:102C900004460D460022144B08F000FC22462B4649
:102CA00008F0FCFB0022134B08F046FAD6E9022399
:102CB00008F0F4FB41EC100B70BD00BFAFF30080D7
:102CC00000000080D145E73F000000205D74E13F37
:102CD000000000E04517ED3F000000A08B2EEA3F0A
:102CE000000000E0A28BEE3F00401E400000E83FE5
:102CF0000000EE3F0080EF3F00000080D145D73F4D
:102D00002DE9F843804655EC104BD0E90467304676
:102D100039460022224B08F0C1FB22462B4608F020
:102D20004DFE98B1D8F800602046294622462B4631
:102D300008F002FA41EC100B33684046984751EC1A
:102D4000100B0022164B08F0A9FB25E0D8F80090E4
:102D50002046294622462B4608F0EEF932463B46ED
:102D600008F0E8F941EC100BD9F8043040469847D8
:102D700051EC100B00220A4B08F090FB04460D4664
:102D8000D8E902010022064B08F088FB02460B46F8
:102D90002046294608F0D0F941EC100BBDE8F88335
:102DA0000000E03F2DE9F041804651EC100BD8E9DE
:102DB000042308F09DFC06460F46D8F80840D8F8D2
:102DC0000C3003F100453046394632463B4608F0A8
:102DD00065FB02460B4600200B4908F0ABF941ECBD
:102DE000100B05F0CBFE51EC100B0022064B08F047
:102DF000A1F902460B462046294608F04FFB41EC5C
:102E0000100BBDE8F08100BF0000F03FF8B50646AA
:102E100051EC100BD6E9042308F06AFC0022104B99
:102E200008F088F904460D46D6E90267204629468F
:102E300022462B4608F032FB02460B46002008498A
:102E400008F078F941EC100B05F098FE3046394651
:102E500053EC102B08F022FB41EC100BF8BD00BF27
:102E60000000F03FF8B5064655EC104BD0E90401E0
:102E70000022344B08F012FB02460B46204629463E
:102E800008F036FC04460D4600222F4B08F078FD72
:102E900040B3B068F36803F100410022294B08F009
:102EA000FDFA06460F462046294622462B4608F0E4
:102EB000F5FA02460B460020234908F03BF941ECA5
:102EC000100B05F05BFE51EC100B00221E4B08F0BE
:102ED00031F902460B463046394608F0DFFA41EC3C
:102EE000100BF8BD2046294600224FF0804308F021
:102EF00021F904460D46D6E902010022114B08F0E3
:102F0000CDFA06460F462046294622462B4608F0B3
:102F1000C5FA02460B4600200B4908F00BF941ECBC
:102F2000100B05F02BFE51EC100B0022064B08F0A5
:102F300003F902460B463046394608F0AFFA41EC39
:102F4000100BF8BD0000E03F0000F03F70B50646F2
:102F500051EC100BD6E9042308F0CAFB04460D46D9
:102F6000D6E9022308F09AFA22462B4608F096FA90
:102F700022462B4608F092FA41EC100B70BD00BFC0
:102F800070B5064651EC100BD6E9042308F0B0FBEF
:102F900000220C4B08F0CEF804460D4602460B46C4
:102FA00008F07CFA22462B4608F078FA0022054BFE
:102FB00008F0C2F8D6E9022308F070FA41EC100BD1
:102FC00070BD00BF0000F03FF8B5064655EC104B51
:102FD000D0E904010022274B08F060FA02460B46B4
:102FE0002046294608F084FB04460D460022224B69
:102FF00008F0C6FCA0B1D6E9020100221D4B08F082
:103000004DFA22462B4608F049FA22462B4608F094
:1030100045FA22462B4608F041FA41EC100BF8BD68
:103020002046294600224FF0804308F083F80446EA
:103030000D46D6E9020100220E4B08F02FFA064693
:103040000F462046294622462B4608F027FA2246FC
:103050002B4608F023FA00224FF0804308F06CF86A
:1030600002460B463046394608F018FA41EC100B80
:10307000F8BD00BF0000E03F0000F03F034B0360DD
:1030800000220023C0E90223704700BF90D0000057
:1030900080ED040B704700BF80ED020B704700BF4E
:1030A0002DE9F04D2DED048B804655EC104B10EEC4
:1030B000100A29460022002308F058FC002840F09E
:1030C0009980D8E904AB2046294652465B4608F071
:1030D0000FFB41EC180B0022514B08F047FC10B1DC
:1030E00098ED020B88E0D8E90667304639460022A1
:1030F000002308F03BFC40B15046594640A3D3E9B9
:10310000002308F0CBF906460F46D8E908452046CB
:1031100029460022002308F029FC48B9D8E902AB6F
:1031200052462BF000432046294608F029FC50B1B6
:10313000D8E902453046394600223A4B08F0AEF94C
:1031400041EC190B18E05046594622462B4608F030
:10315000CFFA41EC100B05F00FFB5BEC10AB3046E7
:10316000394629A3D3E9002308F0C2FA52465B4648
:1031700008F094F941EC190B51EC180B0022284B84
:1031800007F0D8FF41EC180B0022274B08F086F916
:103190009FED1F0B41EC110B05F050FB5BEC10ABEE
:1031A00051EC180BD8E9042308F078F953EC192BEB
:1031B00007F0C0FF14A3D3E9002308F06FF93246EB
:1031C0003B4608F095FA41EC100B05F07DFA57EC00
:1031D000106B5046594622462B4608F05FF932469E
:1031E0003B4608F05BF900EE100A01F1004300EEE7
:1031F000903A01E09FED080BBDEC048BBDE8F08D2B
:10320000000000403333D33F00000060FB21194031
:10321000000000000000004000000000000000006E
:103220000000F03F0000D03F00002440AFF30080DA
:103230002DE9F04D2DED048B804655EC104B10EE32
:10324000100A29460022002308F090FB002840F0D5
:103250009380D8E904AB2046294652465B4608F0E5
:1032600047FA41EC180B00224F4B08F07FFB10B1DE
:1032700098ED020B82E0D8E9066730463946002215
:10328000002308F073FB40B1504659463EA3D3E9F2
:10329000002308F003F906460F46D8E90845204602
:1032A00029460022002308F061FB48B9D8E902ABA7
:1032B00052462BF000432046294608F061FB50B1EE
:1032C000D8E90245304639460022384B08F0E6F886
:1032D00041EC190B18E05046594622462B4608F09F
:1032E00007FA41EC100B05F047FA5BEC10AB3046E7
:1032F000394627A3D3E9002308F0FAF952465B4682
:1033000008F0CCF841EC190B51EC180B0022284BBB
:1033100008F0C4F89FED200B41EC110B05F08EFA7C
:103320005BEC10AB51EC180BD8E9042308F0B6F8AD
:1033300053EC192B07F0FEFE15A3D3E9002308F088
:10334000ADF832463B4608F0D3F941EC100B05F0DE
:10335000BBF957EC106B5046594622462B4608F0F5
:103360009DF832463B4608F099F8D8E9022307F069
:10337000E3FE41EC100B01E09FED090BBDEC048B6B
:10338000BDE8F08DAFF30080000000403333D33F41
:1033900000000060FB211940000000000000004018
:1033A00000000000000000000000F03F0000D03FDF
:1033B000000024C0AFF300802DE9F0472DED048B11
:1033C000824655EC104B10EE100A294600220023CD
:1033D00008F0CCFA002840F0EE80DAE90489404693
:1033E00049460022804B08F059F802460B46204619
:1033F000294608F07DF941EC180B00224FF080437C
:1034000008F0B4FA10B19AED020BD6E0DAE90667DB
:10341000304639460022002308F0A8FA40B1404661
:10342000494669A3D3E9002308F038F806460F4659
:10343000DAE90845204629460022002308F096FADA
:1034400048B9DAE90289424629F000432046294674
:1034500008F096FA50B1DAE90245304639460022C2
:10346000624B08F01BF88046894618E04046494602
:1034700022462B4608F03CF941EC100B05F07CF994
:1034800059EC108B3046394651A3D3E9002308F09C
:103490002FF942464B4608F001F88046894651EC28
:1034A000180B0022524B08F06BFA00283FD051EC69
:1034B000180B00224E4B07F03DFE41EC180B00228A
:1034C0004C4B07F0EBFF9FED440B41EC110B05F06B
:1034D000B5F9B0EE409AF0EE609A51EC180BDAE9CB
:1034E000042307F0DBFF42464B4607F023FE38A3D8
:1034F000D3E9002307F0D2FF32463B4608F0F8F844
:1035000041EC100B05F0E0F857EC106B51EC190B87
:1035100022462B4607F0C2FF32463B4607F0BEFF6D
:103520000022354B07F0BAFF41EC100B45E051EC9F
:10353000180B00222E4B07F0FDFD41EC180B00226A
:103540002E4B07F0ABFF9FED240B41EC110B05F068
:1035500075F9B0EE409AF0EE609A51EC180BDAE98A
:10356000042307F09BFF42464B4607F0E3FD18A3F8
:10357000D3E9002307F092FF32463B4608F0B8F843
:1035800041EC100B05F0A0F857EC106B51EC190B47
:1035900022462B4607F082FF32463B4607F07EFF6D
:1035A0000022114B07F07AFFDAE9022307F0C4FD8D
:1035B00041EC100B01E09FED0A0BBDEC048BBDE864
:1035C000F08700BFAFF30080000000E0CCCCDC3F10
:1035D00000000060FB2119400000000000000040D6
:1035E00000000000000000000000E03F0000D03FAD
:1035F0000000F03F000024400000E0BF000024C0B5
:1036000010B50446FFF73AFD044B23600022002367
:10361000C4E90623C4E90823204610BDA8D0000051
:103620002DE9F041804655EC104B10EE100A29466A
:103630000022002308F09AF9F8B9D8E90267204679
:103640002946D8E9042308F053F80022124B07F06A
:1036500071FD0022114B07F021FF9FED0B0B41EC98
:10366000110B05F0EBF83046394653EC102B07F000
:1036700015FF41EC100BBDE8F0819FED050BBDE897
:10368000F08100BFAFF300800000000000000040A8
:1036900000000000000000000000F03F0000244097
:1036A0002DE9F843804657EC106BD0E904452046DD
:1036B000294610EE102A3B4608F058F918B198ED4B
:1036C000020BBDE8F883D8E902893046394600226A
:1036D000114B07F0E3FE22462B4608F009F89FED58
:1036E0000C0B41EC110B05F0A9F800200B4953EC31
:1036F000102B07F01FFD02460B464046494607F0D7
:10370000CDFE41EC100BBDE8F88300BFAFF30080A5
:103710000000000000000040000024C00000F03F56
:103720002DE9F843804655EC104B10EE100A29465F
:103730000022002308F01AF900286CD1D8E90467A8
:103740003046394622462B4608F010F918B198ED5C
:10375000020BBDE8F883304639460022344B07F0AF
:103760009DFE02460B462046294607F0C1FF06464D
:103770000F4600222F4B08F003F908B3D8E90201E5
:1037800000222B4B07F08AFE04460D463046394690
:103790000022284B07F0CEFC0022274B07F07EFECC
:1037A0009FED1F0B41EC110B05F048F82046294610
:1037B00053EC102B07F072FE41EC100BBDE8F883C0
:1037C000D8E9020100221A4B07F068FE80468946BC
:1037D00000244FF08045304639460022154B07F053
:1037E000A9FC0022154B07F059FE45EC104B41ECAB
:1037F000110B05F023F82046294653EC102B07F057
:1038000099FC02460B464046494607F047FE41EC0C
:10381000100BBDE8F8839FED040BBDE8F88300BFF3
:103820000000000000000040000000000000000058
:103830000000E03F0000F03F00002440000024C0F2
:1038400010B5044651EC100BD4E9022307F026FE14
:10385000D4E9042307F04CFF41EC100B10BD00BF6E
:1038600008B503681B68984708BD00BF08B5036822
:103870001B68984708BD00BF70B5064651EC100B99
:10388000D6E9042307F034FF04460D46D6E90223A7
:1038900007F004FE22462B4607F000FE41EC100B19
:1038A00070BD00BF2DE9F041804651EC100BD8E906
:1038B000042307F01DFF06460F46D8F80800D8F885
:1038C0000C3003F1004132463B4607F0E7FD044669
:1038D0000D463046394600224FF0804307F02AFC5F
:1038E00002460B462046294607F0D8FD41EC100B56
:1038F000BDE8F0812DE9F041804655EC104BD0E950
:1039000004010022274B07F0C9FD02460B46204662
:10391000294607F0EDFE04460D460022224B08F032
:103920002FF888B1D8E9020100221E4B07F0B6FD3E
:1039300022462B4607F0B2FD22462B4607F0AEFD8D
:1039400041EC100BBDE8F081204629460022164BC1
:1039500007F0F0FB06460F46D8F80800D8F80C3000
:1039600003F1004100220F4B07F098FD04460D467D
:103970003046394600224FF0804307F0DBFB3246E9
:103980003B4607F08BFD0022074B07F0D3FB0246B6
:103990000B462046294607F081FD41EC100BBDE89F
:1039A000F08100BF0000E03F0000F03F70B5064628
:1039B00051EC100BD6E9042307F09AFE04460D469D
:1039C000D6E9022307F06AFD22462B4607F066FD82
:1039D00022462B4607F062FD22462B4607F05EFD8D
:1039E00041EC100B70BD00BF2DE9F041804651EC59
:1039F000100BD8E9042307F07BFE0022124B07F0DE
:103A000099FB04460D46D8F80860D8F80C3003F14D
:103A1000004702460B4607F041FD22462B4607F0C1
:103A20003DFD22462B4607F039FD0022064B07F0EC
:103A300081FB02460B463046394607F02FFD41EC2C
:103A4000100BBDE8F08100BF0000F03FF8B506465E
:103A500055EC104BD0E9040100222C4B07F01EFD61
:103A600002460B462046294607F042FE04460D4614
:103A70000022274B07F084FFC0B1D6E902010022E3
:103A8000224B07F00BFD22462B4607F007FD22468E
:103A90002B4607F003FD22462B4607F0FFFC22468B
:103AA0002B4607F0FBFC41EC100BF8BD20462946E5
:103AB00000224FF0804307F03DFB04460D46B068FE
:103AC000F36803F100410022104B07F0E7FC0646C3
:103AD0000F462046294622462B4607F0DFFC2246A9
:103AE0002B4607F0DBFC22462B4607F0D7FC0022D2
:103AF0004FF0804307F01EFB02460B463046394626
:103B000007F0CCFC41EC100BF8BD00BF0000E03F1B
:103B10000000F03F70B5064651EC100BD6E90423C7
:103B200007F0E6FD04460D46D6E9022307F0B6FC91
:103B300022462B4607F0B2FC22462B4607F0AEFC8D
:103B400022462B4607F0AAFC22462B4607F0A6FC8D
:103B500041EC100B70BD00BF70B5064651EC100B68
:103B6000D6E9042307F0C4FD0022104B07F0E2FA67
:103B700004460D4602460B4607F090FC22462B46B3
:103B800007F08CFC22462B4607F088FC22462B4689
:103B900007F084FC0022054B07F0CEFAD6E9022399
:103BA00007F07CFC41EC100B70BD00BF0000F03F43
:103BB000F8B5064655EC104BD0E9040100222F4B16
:103BC00007F06CFC02460B462046294607F090FDA4
:103BD00004460D4600222A4B07F0D2FEE0B1D6E99A
:103BE00002010022254B07F059FC22462B4607F024
:103BF00055FC22462B4607F051FC22462B4607F087
:103C00004DFC22462B4607F049FC22462B4607F086
:103C100045FC41EC100BF8BD2046294600224FF030
:103C2000804307F087FA04460D46D6E902010022D8
:103C3000124B07F033FC06460F4620462946224623
:103C40002B4607F02BFC22462B4607F027FC22468A
:103C50002B4607F023FC22462B4607F01FFC0022D0
:103C60004FF0804307F068FA02460B46304639466B
:103C700007F014FC41EC100BF8BD00BF0000E03F62
:103C80000000F03FFFFFFFFF38B50346D0E90245D3
:103C900051EC100BD3E9042307F02AFD0CA3D3E960
:103CA000002307F0FBFB41EC100B04F08DFC2046D9
:103CB00005F1004153EC102B07F0F0FB02460B46D8
:103CC0002046294607F038FA41EC100B38BD00BFFA
:103CD00000000060FB21F93FF8B5044651EC100BE1
:103CE00015A3D3E9002307F0D9FBD4E9042307F097
:103CF000FFFC41EC100B04F067FC57EC106BA06864
:103D0000E36803F100410022094B07F0C7FB0446BA
:103D10000D46304639460022064B07F00BFA0246A4
:103D20000B462046294607F0B9FB41EC100BF8BDC5
:103D30000000E03F0000F03F00000060FB21094070
:103D400010B5044651EC100BD4E9042307F0D0FC65
:103D500009A3D3E9002307F0A1FB41EC100B04F009
:103D6000B3FC51EC100BD4E9022307F097FB41ECB4
:103D7000100B10BDAFF3008000000060FB21F93F85
:103D80000B4B1B7813B90B4B1B7873B10A4B1B7889
:103D9000202B03D90123037100207047581C064AC9
:103DA0001070064AD154012070470020704700BFB0
:103DB0008E1EFF1F501EFF1F8F1EFF1F2C1EFF1F7A
:103DC000704700BF024B1878024B1B78C01A70472F
:103DD0008D1EFF1F8C1EFF1F074B1B78074A127892
:103DE0009A4205D9591C044A1170054AD05C7047A3
:103DF0004FF0FF30704700BF8C1EFF1F8D1EFF1F4E
:103E0000541EFF1F054B1B78054A12789A4286BF45
:103E1000044AD05C4FF0FF30704700BF8C1EFF1F7C
:103E20008D1EFF1F541EFF1F08B5104BDB7813F0CB
:103E3000200F0CD1122000F093FB0D4B1B689BB19F
:103E400000210C4A11700C4A1078984708BD0B4AA3
:103E500013780133DBB21370012B02D8084B1B78A7
:103E600013B9122000F07CFB08BD00BF00600640C3
:103E7000281EFF1F8C1EFF1F8D1EFF1F781EFF1F99
:103E8000501EFF1F38B514460D4B1B7813B90D4B50
:103E90001B7893B10C4B1D78C5F12103A34202D2CC
:103EA000012202711C4609482844224600F0B4F859
:103EB0002544054B1D70204638BD002038BD00BF8D
:103EC0008E1EFF1F501EFF1F8F1EFF1F2C1EFF1F69
:103ED000002202714FF47A7181600273014A02601C
:103EE000704700BF50D1000008B53D4BDB78DBB216
:103EF00013F0100F06D01021394AD17013F0400F83
:103F000003D108BD13F0400F2CD013F0040F1BD0C9
:103F10000023344A1370344A1370344B1B681BB1AE
:103F20009847314B1B782BB901222F4B1A70002276
:103F30002F4B1A702A4BD0229A702D4A12781A7180
:103F400001222C4B1A7009E00122264B1A70002224
:103F5000294B1A70224BC0229A701B790222204BE7
:103F6000DA7008BD1E4A927812F0100F1CD013F0C0
:103F7000010F14D11F4B1B781B4A12789A4207D9A4
:103F8000591C1C4A11701A4AD25C154B1A7102E076
:103F90000022134B1A71D022114B9A701BE0104B68
:103FA000C0229A701B7916E00022144B1A7012205E
:103FB0001349032200F0A0FB094B1B79DAB20E4B28
:103FC0001B781F2B07D80749097821B1581C0A49CB
:103FD00008700C49CA540222014BDA7008BD00BFB8
:103FE00000600640241EFF1F8F1EFF1F741EFF1F50
:103FF0002C1EFF1F901EFF1F8D1EFF1F781EFF1F10
:10400000293E0000541EFF1F08B50248FFF760FF5D
:1040100008BD00BF7C1EFF1F844641EA000313F069
:1040200003036DD1403A41D351F8043B40F8043BBF
:1040300051F8043B40F8043B51F8043B40F8043B82
:1040400051F8043B40F8043B51F8043B40F8043B72
:1040500051F8043B40F8043B51F8043B40F8043B62
:1040600051F8043B40F8043B51F8043B40F8043B52
:1040700051F8043B40F8043B51F8043B40F8043B42
:1040800051F8043B40F8043B51F8043B40F8043B32
:1040900051F8043B40F8043B51F8043B40F8043B22
:1040A00051F8043B40F8043B403ABDD2303211D3C2
:1040B00051F8043B40F8043B51F8043B40F8043B02
:1040C00051F8043B40F8043B51F8043B40F8043BF2
:1040D000103AEDD20C3205D351F8043B40F8043BC2
:1040E000043AF9D2043208D0D2071CBF11F8013BC0
:1040F00000F8013B01D30B8803806046704700BF86
:10410000082A13D38B078DD010F003038AD0C3F194
:104110000403D21ADB071CBF11F8013B00F8013B76
:1041200080D331F8023B20F8023B7BE7043AD9D335
:10413000013A11F8013B00F8013BF9D20B7803700A
:104140004B7843708B7883706046704730B4394A3F
:104150003949136813F0800FFBD10B6813F0800FFF
:10416000F7D172B6354B1B78002B5FD0344B1C68EF
:1041700004331D68043318680433196804331A685B
:1041800004331B682C44204401440A441A44C2F3FB
:104190004E0242F400422B4B1A602C331C6804334D
:1041A0001D68043318680433196804331A6804332B
:1041B0001B682C44204401440A441A44C2F34E02B2
:1041C00042F40042204B1A6003F108131C680433C8
:1041D0001D68043318680433196804331A680433FB
:1041E0001B682C44204401440A441A44C2F34E0282
:1041F00042F40042154B1A602C331C6804331D68CE
:10420000043318680433196804331A6804331B68CC
:104210002C44204401440A441A44C2F34E0242F49E
:1042200000420B4B1A600022044B1A7062B630BC7D
:10423000704700BF24B0034024B00B40921EFF1F04
:1042400038B003402CB0034030B003402CB00B40DA
:1042500030B00B4060223A4B1A70E12201331A70E1
:10426000384B1B78082B10D1212203F1804303F532
:104270006C331A60132334490B6001F5FF2101F2FE
:10428000FC710A60314A13601FE00A2B0DD13922FC
:104290002F4B1A6013232C490B6001F5FF2101F20B
:1042A000FC710A60294A13600FE00C2B0CBF352209
:1042B0005D22274B1A60122323490B6001F5FF2171
:1042C00001F2FC710A60214A1360224B1B7833B162
:1042D0000123214A136002F50022136005E0002348
:1042E0001D4A136002F5002213601C4B1B78012B42
:1042F00006D880231A4A136002F5002213601AE0E0
:10430000042B06D88423164A136002F5002213609A
:1043100011E0082B06D88523114A136002F500220C
:10432000136008E0102B94BF862387230C4A136088
:1043300002F50022136001220A4B1A70704700BF79
:10434000004007405408FF1F0CB003400CB00B4066
:1043500008B00340931EFF1F20B003405508FF1F05
:1043600024B00340921EFF1F08B50C2804D9102862
:1043700028BF1020102307E00A2804D8092834BFDA
:1043800008230A2300E00C23DAB2101A0949087046
:104390000949097899420CD0074B1A70074B1B78D2
:1043A0002BB10023064A136002F500221360FFF7C9
:1043B00051FF08BD911EFF1F5408FF1F921EFF1FD3
:1043C00024B0034010B50446124B1B780BB1FFF725
:1043D000BDFE012C03D800220F4B1A6017E0042CFD
:1043E00003D804220C4B1A6011E0082C04D80522D3
:1043F000094B1A6008220AE0102C04D80622064B4A
:104400001A60102203E00722034B1A602022034B9C
:104410001A7010BD921EFF1F24B003405508FF1FE5
:10442000024B1A6801321A60704700BF941EFF1FCA
:1044300008B50D4C236813F4802F01D000F090FBD9
:10444000236813F4806F01D001F0F2FF236813F4A6
:10445000006F01D002F0AEFB236813F4805FE9D057
:1044600002F06CFEE6E700BF3480044008B5FFF7B9
:10447000DFFF00BF1022014B1A807047002005406B
:10448000704700BF024A136818441060184670470E
:104490005808FF1FEFF31383ABB9EFF31083ABB9E9
:1044A000EFF3058323B10F2B05D9094A985C03E08C
:1044B0004FF4807000E00020EFF311833BB18342A2
:1044C00038BF184670474FF0FF30704700207047E4
:1044D000F0E300E00B4B1B78DBB2802B0ED10A4AD5
:1044E0000A4B1A60002203F5573303F2BD331A70EA
:1044F000044A1378DBB2802BFBD001E00020704728
:104500000120704703E0074000002522448004405A
:104510000B4B1B78DBB2012B0FD1602203F18043E0
:1045200003F5FC231A70064A1378DBB2802BFBD10B
:10453000044A054B1A60012070470020704700BFF5
:1045400003E007400000050244800440704700BFBC
:104550001030024B43F82010704700BF0002FF1FCD
:104560001D4B03EBC000436803F14042A2F59222C9
:104570007C2A18D903F14042A2F594227C2A14D94E
:1045800003F14042A2F596227C2A10D903F1404261
:10459000A2F598227C2A0CD903F14042A2F59A2276
:1045A0007C2A08D970470D4906E00D4904E00D4901
:1045B00002E00D4900E00D4972B61A6822F08772D8
:1045C00022F4803242F080721A60C3F38403084AF6
:1045D00041F8232062B6704768D100005C08FF1FD5
:1045E000D408FF1F3409FF1F6409FF1FA409FF1F20
:1045F0004D450000044B00221A6004490A60044A39
:10460000106010221A60704714D0034004D0034099
:1046100000D003403F281ED80F4B53F8303093F89A
:10462000802212F0FF0F08D019B1012283F88020F8
:104630007047012283F800217047074B03EBC0004D
:10464000436821B11A6842F003021A6070471A6881
:1046500022F002021A60704768D100003F2806D895
:10466000044B53F8303093F80002C0B2704700207A
:10467000704700BF68D100003F283AD81D4B03EBBC
:10468000C0035B68012919D0042925D0194A52F8C2
:104690003020002082F8800219B94FF480721A602D
:1046A0007047022903D140F203121A6070470329B0
:1046B0000CBF4FF4817200221A6070470D4A52F805
:1046C0003020012182F880124FF4A2721A601A6819
:1046D00022F020021A607047064A52F83020012169
:1046E00082F880124FF4A2721A601A6842F0200217
:1046F0001A60704768D1000070B50D463F2861D838
:10470000042A5FD8DFE802F00709050B03000B233A
:1047100006E00A2304E0082302E00C2300E009235A
:104720001E04294B03EBC0035C68236813F4E06F9D
:1047300002D10021FFF7A0FF244B254AC3F82C210A
:10474000244AC3F83021244AC3F83421234AC3F849
:104750003821234AC3F83C2104F14043A3F59223B6
:104760007C2B18D904F14042A2F594227C2A14D95A
:1047700004F14043A3F596237C2B10D904F1404368
:10478000A3F598237C2B0CD904F14043A3F59A237D
:104790007C2B08D970BD134906E0134904E0134986
:1047A00002E0134900E0134972B6236823F4702332
:1047B0002360C4F3840241F8225043F080731E4307
:1047C000266062B670BD00BF68D100000002FF1F06
:1047D0001108FF1FE507FF1FB907FF1F8D07FF1F08
:1047E0006107FF1F5C08FF1FD408FF1F3409FF1F6C
:1047F0006409FF1FA409FF1F72B60D4B1B680D4A09
:1048000012680D49096862B611F0806F02D0322B30
:1048100088BF0132C3F524333F33DB080749A1FBCE
:1048200003035B084FF47A7000FB0230704700BF4F
:1048300018E000E0941EFF1F04ED00E019866118E7
:1048400038B50546FFF7D8FF044625B938BD013D08
:104850000AD004F57A74FFF7CFFF001BB0F57A7F1A
:10486000F5D201F05BFAF6E738BD00BF70B5404BFA
:104870004FF000621A604FF080521A604FF0005201
:104880001A604FF080421A604FF000421A60002216
:10489000384B1A604DF6FF700433186028233649F0
:1048A0000B6008310B6008310B6008310B60083178
:1048B0000B6008310B6008310B6008310B602F4D25
:1048C0002B602F4C236001F5002101F6D8710B609D
:1048D00008310B6008310B6008310B6008310B6048
:1048E00008310B600921274E316006F580560436E9
:1048F0003260043630600436336008363360143E6C
:10490000316006F5FE260436326004363060043627
:10491000336008363360143E316006F58056043645
:104920003260043630602B602360174801601749FD
:10493000086840F4007008602839086840F000708A
:10494000086001F501210A6047F6FF71104A116005
:10495000043213600832136008220E4B1A60FFF70E
:1049600079FC4FF4C870FFF76BFF00F079FC70BD65
:1049700004E100E0048003400C8003400C900B40F5
:1049800014900B400080034000900B402C800440AA
:1049900008900C4000900C4030B40E4B1B7843F054
:1049A00002020D4C04EBC20460600C480078002841
:1049B0000CBF8824C82444EA0141074D45F8321051
:1049C00080F00100054A107083F00103014A137062
:1049D00030BC7047001FFF1F0000FF1F791FFF1F23
:1049E00010B4431E032B11D872B60A4A52F82300A2
:1049F00050B14268074941F82320074A32F8134072
:104A00000188611A22F8131062B600E000205DF8F8
:104A1000044B7047F01EFF1F3823FF1F0138032887
:104A20000DD872B6074B53F820302BB1002001305F
:104A30005B68002BFBD100E0002062B670470020CD
:104A4000704700BF441FFF1F38B572B601231B49D2
:104A50001B4C5A1812F8012C12F0080F24D09A009F
:104A600054F832506DB9164B03EBC2010830486060
:104A7000144943F83210144B1A78013A1A7062B68E
:104A800038BD42F0010254F832506DB90C4B03EBC3
:104A9000C201083048600D4943F832100A4B1A78B9
:104AA000013A1A7062B638BD0133052BD1D162B616
:104AB0000022054B1A7000F03DFC38BD78D500008F
:104AC0000000FF1F880040006E1FFF1FC80040004D
:104AD00010B4431E032B37D8400140F010001C4A8D
:104AE000104472B61B4AD25C032A09D8DFE802F0F0
:104AF00019021B050830022216E00830042213E0D8
:104B0000154A52F823201AB9134A42F8231003E039
:104B1000124A52F823205160104A42F8231062B61C
:104B200012E0032200E005220A4CE25401F10803DE
:104B3000436000F00803002B0CBF8823C8230A88B9
:104B400043EA0243036062B65DF8044B704700BF5E
:104B50000000FF1FAC1EFF1F441FFF1F541FFF1F3D
:104B60002DE9F84FA34CDFF8E092DFF8E0A2DFF880
:104B7000E0B22578EDB215F0040F1DD09E4B1B78E6
:104B800013F0FF0F16D09D4B1B7803F0FF022BB1E3
:104B9000531EDBB2994A137003B900BE984B1B78C1
:104BA00003F0FF0233B1531EDBB2954A13700BB909
:104BB00000F01EFD0423237015F0080F00F0E482BE
:104BC00099F80030DBB21D0940F021828D4D9E081E
:104BD00005EBC6035A6855F83630C3F38303013B2F
:104BE0000C2B00F21082DFE813F0CB01CB010E0298
:104BF0000E020E020E020E020E02E8010E020E025C
:104C00000E020D00804913680B6052684A607F4AAB
:104C100045F8362000227E490A607A490A618A6195
:104C200001217C4A11709BB240F28162934218D8F4
:104C3000B3F5D06F2ED2B3F5817F00F01E8106D878
:104C4000802B00F0C980822B00F0CC8066E140F21E
:104C50000232934200F02681B3F5A06F00F062812A
:104C60005CE142F22102934200F0868107D8B3F55D
:104C7000086F00F0AB80B3F5106F11D04EE142F237
:104C80002122934200F0418142F22132934200F00E
:104C9000498143E1604B5D68002D40F0188130E1AF
:104CA000594B9A78544B1A70564D05F180062B6A71
:104CB00013F0800F03D0686A083800F03BFB08351A
:104CC000B542F4D1DFF88C8100263746534AB058FC
:104CD00028B1456800F02EFB0DB12846F9E7002306
:104CE0004E4973504E4AB3504E4BF05828B1456868
:104CF00000F020FB0DB12846F9E700234949735025
:104D0000494AB35028F8023F484BFB5C023B032B57
:104D10000AD8DFE803F0020602060022434BDA5508
:104D200002E00122414BDA5501370436102ECDD175
:104D300000223F4B1A7001253E4EDFF81C81314F97
:104D400005EB080313F8013C06F8043B13F0080FC9
:104D50002DD000F0CFFA48B1A90007EB451200F1C1
:104D600008035360344A47F8312007E0AB000022C3
:104D700047F833202E4B1A7801321A7000F0BAFA35
:104D800058B1AB0043F0010307EBC30100F1080287
:104D90004A601E4A47F8332009E0AB0043F00103A4
:104DA000002247F83320224B1A7801321A70AA00E9
:104DB00042F00201002347F8313042F0030247F885
:104DC000323001351D4B9E42BAD11EE20A4B1B7890
:104DD0001B4D2B700127AAE0194D00232B706B701F
:104DE0000227A4E0084B9B88042B37D90F22154BD0
:104DF0001A70C1E080200740781FFF1F011FFF1FAE
:104E00007A1FFF1F0000FF1F641FFF1FC800400024
:104E1000981EFF1F791FFF1F7CD50000F01EFF1F8B
:104E20009C1EFF1F441FFF1F541FFF1FAC1EFF1FB0
:104E30006E1FFF1FC420074088004000D420074099
:104E4000701FFF1FC020074090200740942007409C
:104E5000982007403623FF1F78D50000A04A002184
:104E6000117051709F4A12F8233013F0020F5CD07A
:104E70009B4D01232B70022759E09B4B9B8803F02D
:104E80007F03042B02DC984A52881AB10F22954BFB
:104E90001A7071E0934A12F8231021F0020102F80F
:104EA0002310B2E1904B9B8803F07F03042B02DCBC
:104EB0008D4A52881AB10F228A4B1A705CE0894AD7
:104EC00012F8231041F0020102F823109DE1864BF5
:104ED0005E889F88854BA3F10C02114633F80C0CB9
:104EE000B04209D133F80A0CB84205D1360A032E74
:104EF0000CBF2F7817891AE00D690C330C32002D86
:104F0000EBD10F22774B1A7036E0794B1A68794B48
:104F10001A60754B9A78784B1A7076E10F22714BB4
:104F20001A7029E000273D4601E002276C4D6E4BC8
:104F3000DB889F4228BF1F46402F34BF3E46402695
:104F400028463146FFF728FD3544BF1B03D13F2ECD
:104F500000F2608110E0402F34BF3E4640262846D4
:104F60003146FFF719FD3544BF1B01D13F2E03D950
:104F7000624B1D60624B1F8001238AF8003042E0C3
:104F8000594B198842F22103994212D15D4BD81D29
:104F900012F8011B03F8011F8342F9D15A4B1B6819
:104FA000862B02D10F22594B1A7000200146FFF7C1
:104FB000F3FC574B45F8363025E0504B1E68BEB128
:104FC0004F4FB7F80080B8F1400F34BF4546402539
:104FD00030462946FFF7E0FCC5EB08039BB23B8057
:104FE0000BB9402D01D1354400E00025434B1D6035
:104FF0003D4B1B88B3F5A06F05D13B4B00225A7087
:105000009B788BF8003001238AF80030B9E0414EDC
:105010009F0806EBC708D8F80420A2F10800013D5C
:10502000EDB213F0080F47D000F084F93A4B53F873
:1050300025304BB35A68384941F8252003F108025E
:10504000C8F80420354A525D032A12D8DFE802F07E
:1050500002060A0E0321314A51550AE002212F4A65
:10506000515506E005212D4A515502E004212B4AF5
:10507000515518F0080F0CBF8822C8221B8842EA3D
:10508000034346F837307CE0244B5B5D032B0BD8A1
:10509000DFE803F0777702060022204B5A5570E0D4
:1050A00001221E4B5A556CE018F0080F0CBF02226B
:1050B00003221A4B5A5564E056F837301B0C22F87D
:1050C000083C002B55D0002322F8063C42F8043C53
:1050D000134B53F825302BBB114B43F8250025E02B
:1050E000701FFF1FC0200740641FFF1F88D50000EE
:1050F000941EFF1F4823FF1F881FFF1F981EFF1FBE
:105100006C1FFF1F3F23FF1F4023FF1F011FFF1FB7
:10511000C80040000000FF1F441FFF1FAC1EFF1F00
:10512000F01EFF1F3F4B53F8253058603D4B43F8AE
:1051300025003D4B33F8151032F8082C0A4423F8AB
:10514000152000F0D7F860B100F10803C8F804306A
:1051500018F0080F354B364A08BF134646F837306B
:105160000FE0002346F83730324B1A7801321A70BC
:1051700007E018F0080F2D4B2D4A08BF134646F8DC
:10518000373008232370F4E415F0010F22D02A49A8
:1051900002230B700022294B1A70294B24481860F7
:1051A000284C5C6098602848D8601A619A610D208C
:1051B000264B1870FF2326480370083803701830F8
:1051C0000270244A13709F22234B1A7001230B7024
:1051D000BDE8F88F15F0800F05D00D221B4B1A701B
:1051E0008022403B1A7015F0020F06D0184B1A7837
:1051F000D2B21A700222083B1A7015F0100F0ED0AE
:105200001022164B1A70BDE8F88F00200146FFF7F8
:10521000C3FBB1E628460021FFF7BEFBACE6BDE8C4
:10522000F88F00BF9C1EFF1F3823FF1FC8004000DF
:10523000880040006E1FFF1F94200740001FFF1FC3
:105240000000FF1FB01EFF1F041FFF1FC0200740EC
:10525000882007408C20074084200740802007409A
:1052600008B503F0D3F800231C491A465A50C81851
:1052700042600833882BF9D1194B1A6842F4802216
:105280001A60184B1A6842F040721A60134BC3F34D
:105290000721154A1170C3F30741143211701B0E18
:1052A00004321370FF23343A137008321370783AC3
:1052B000137001238432137000216C3211707C3A18
:1052C00013707022094B1A704FF40012A3F231339D
:1052D0001A601022064B1A7008BD00BF0000FF1FA5
:1052E0003480044000D800409C20074035E400E0B2
:1052F0000821074072B60D4B1A68B2FA82F30B2BE5
:1053000002D962B6002070474FF00041D94022EA2E
:10531000010206490A6062B6054903EBC303DB00DC
:10532000C8180022CA504260704700BF100AFF1F11
:105330000004FF1F08B50F4BC31A0F4AA2FB03134B
:105340001B090B2B14D80D4A12783AB10C4A12786B
:1053500012F0FF0F02D0FFF777FB08BD72B6094AC3
:105360004FF0004121FA03F311681943116062B64E
:1053700008BD00BF0004FF1F398EE3386E1FFF1FFA
:10538000781FFF1F100AFF1F10B5134B1B6853B97E
:10539000124B1B7813F0FF0F18D00320FFF720FBF0
:1053A0000D4B1860A8B10C4B186843885A1C034475
:1053B0001C7A03889A4206D3FFF7BCFF0022064BF3
:1053C0001A60204610BD4280204610BD4FF0FF30CD
:1053D00010BD4FF0FF3010BD841FFF1F781FFF1F4F
:1053E00008B50D4B1B6883B90C4B1B7813F0FF0FEE
:1053F00008D00320FFF7F4FA074B186028B94FF0E4
:10540000FF3008BD4FF0FF3008BD034B1B685A88C2
:105410001344187A08BD00BF841FFF1F781FFF1FA9
:10542000044B9888044B1B681BB11A885B88D31AFD
:10543000184470473823FF1F841FFF1F10B50B4B04
:105440001B7813F0FF0F0FD0094B186820B1FFF73E
:1054500071FF0022064B1A6003242046FFF7C0FAB2
:1054600010B1FFF767FFF8E710BD00BF781FFF1FFF
:10547000841FFF1F2DE9F84F04460122374B1A7095
:105480008B46002964D00E46DFF8E080DFF8E0901C
:105490009A46334FD8F800307BBB99F8003013F0B0
:1054A000FF0F06D100222D4B1A704FF0FF30BDE8E0
:1054B000F88F2C4D0420FFF7B1FA07280AD80123F2
:1054C0008AF80030FFF716FFC8F80000A8B90023DB
:1054D0008AF80030013D01D03B7833B10122204BE6
:1054E0001A704FF0FF30BDE8F88F00F017FC99F804
:1054F000003013F0FF0FDDD1D4E700233B70D8F864
:1055000000104A88C2F14005AE4238BF354602F16C
:1055100008030B442A444A80761B3DB1254414F805
:10552000012B03F8012BAC42F9D100E025464B8852
:105530003F2B07D940230B800420FFF7C9FA002333
:10554000C8F800300522084B1A700EB12C46A1E7AE
:105550000022024B1A705846BDE8F88F7B1FFF1FD0
:10556000801FFF1FC92C01007A1FFF1F7C1FFF1F18
:10557000781FFF1F00B583B002AB03F8010D18467A
:105580000121FFF777FF03B05DF804FB10B5144B62
:105590001B7813F0FF0F21D00122124B1A70124B0F
:1055A000196851B10024114B1C704B880B800420EA
:1055B000FFF78EFA0C4B1C600DE0FFF79BFE0146D7
:1055C00030B10022094B1A700420FFF781FA02E083
:1055D0000122064B1A700022024B1A7010BD00BF48
:1055E000781FFF1F7B1FFF1F7C1FFF1F7A1FFF1FDE
:1055F00008B50E4B1B7813F0FF0F16D10C4B196832
:1056000041B14B880B800420FFF762FA0022084B5F
:105610001A6008BDFFF76EFE014618B10420FFF7BF
:1056200057FA08BD0122034B1A7008BD7B1FFF1FEC
:105630007C1FFF1F7A1FFF1F08B503681B68C9B2D4
:10564000984708BD08B503681B68C9B2984708BDEC
:1056500008B503681B68C9B2984708BD08B5036858
:105660001B68C9B2984708BD08B5044800EB510053
:10567000B0FBF1F000F0A4FB08BD00BF00F406147D
:1056800010B51446054800EB5100B0FBF1F000F0F6
:1056900097FB204600F00CFC10BD00BF00F4061480
:1056A00008B500F03FFC08BD08B5084600F074FCE2
:1056B00008BD00BF08B5084600F0D4FC08BD00BF17
:1056C00008B50846114600F083FC08BD08B5084639
:1056D00000F002FD003018BF012008BD08B50846E3
:1056E00000F01CFD003018BF012008BD08B500F017
:1056F00015FE08BD08B500F05BFE08BD08B500F05A
:105700001DFE08BD08B500F0E7FD08BD08B500F0B6
:1057100069FE08BD08B500F0EFFD08BD08B50846F4
:1057200000F028FD012008BD08B5084600F022FD64
:10573000012008BD10B514460846114600F06AFD68
:10574000204610BD38B50D46084606F0CFFC04468D
:105750002846214600F05EFD204638BD704700BF58
:10576000044B00221A714FF47A7199601A73024A3D
:105770001A6070478C1FFF1F70D3000008B50368C4
:105780001B68C9B2984708BD08B503681B68C9B251
:10579000984708BD08B503681B68C9B2984708BD9B
:1057A00008B503681B68C9B2984708BD08B5044826
:1057B00000EB5100B0FBF1F000F0CAFE08BD00BFE5
:1057C00000F4061410B51446054800EB5100B0FB78
:1057D000F1F000F0BDFE204600F020FF10BD00BF3C
:1057E00000F4061408B500F053FF08BD08B50846DC
:1057F00000F0ACFF08BD00BF08B5084601F000F896
:1058000008BD00BF08B50846114600F0BBFF08BD43
:1058100008B5084601F022F8003018BF012008BD85
:1058200008B5084601F03CF8003018BF012008BD5B
:1058300008B501F035F908BD08B501F07BF908BDE0
:1058400008B501F03DF908BD08B501F007F908BD3C
:1058500008B501F089F908BD08B501F00FF908BDD8
:1058600008B5084601F048F8012008BD08B508460B
:1058700001F042F8012008BD10B514460846114653
:1058800001F08AF8204610BD38B50D46084606F0EE
:105890002DFC04462846214601F07EF8204638BDFE
:1058A000704700BF044B00221A714FF47A7199605F
:1058B0001A73024A1A6070479C1FFF1FD0D3000062
:1058C00008B503681B68C9B2984708BD08B50368E6
:1058D0001B68C9B2984708BD08B503681B68C9B200
:1058E000984708BD08B503681B68C9B2984708BD4A
:1058F00008B5044800EB5100B0FBF1F001F0EAF903
:1059000008BD00BF00FCAC0610B51446054800EB0E
:105910005100B0FBF1F001F0DDF9204601F01AFA78
:1059200010BD00BF00FCAC0608B501F04DFA08BD83
:1059300008B5084601F080FA08BD00BF08B5084662
:1059400001F0C2FA08BD00BF08B50846114601F0D3
:105950008FFA08BD08B5084601F0B8FA003018BF44
:10596000012008BD08B5084601F0D2FA003018BF82
:10597000012008BD08B501F06BFB08BD08B501F0BA
:10598000B1FB08BD08B501F073FB08BD08B501F017
:105990003DFB08BD08B501F0BFFB08BD08B501F02F
:1059A00045FB08BD08B5084601F0D4FA012008BD42
:1059B00008B5084601F0CEFA012008BD10B514461E
:1059C0000846114601F016FB204610BD38B50D46BD
:1059D000084606F08BFB04462846214601F00AFBE8
:1059E000204638BD704700BF044B00221A714FF4A7
:1059F0007A7199601A73024A1A607047AC1FFF1FD0
:105A000030D4000008B503681B68C9B2984708BDC8
:105A100008B503681B68C9B2984708BD08B5036894
:105A20001B68C9B2984708BD08B503681B68C9B2AE
:105A3000984708BD08B5044800EB5100B0FBF1F0F1
:105A400001F0F0FB08BD00BF00FCAC0610B5144629
:105A5000054800EB5100B0FBF1F001F0E3FB2046FC
:105A600001F044FC10BD00BF00FCAC0608B501F01D
:105A700077FC08BD08B5084601F0D6FC08BD00BF9C
:105A800008B5084601F02AFD08BD00BF08B5084664
:105A9000114601F0E5FC08BD08B5084601F04CFDD3
:105AA000003018BF012008BD08B5084601F066FDAA
:105AB000003018BF012008BD08B501F0DFFD08BDAA
:105AC00008B501F025FE08BD08B501F0E7FD08BDE9
:105AD00008B501F0B1FD08BD08B501F033FE08BD01
